:0400000086EF2DF06A
:1058400012004B50120093809382120023EC2CF034
:105850001200016E01C04BF01200080ED56ED58EFD
:10586000120084808450FE0B846E1200DEEC31F056
:10587000C7EC2CF0120003C04DF004C04EF0120033
:105880004DC001F04EC002F01200948094829484C6
:105890009588958A12009350FD0B936E8150FD0BF5
:1058A000816E12009350FE0B936E8150FE0B816E41
:1058B0001200040E29EC2CF07BEC2CF0D4EC2CF034
:1058C0001200F2A466EF2CF068EF2CF061EF2CF0E0
:1058D000120045EC2CF0C7EC2CF0000E476E000EC9
:1058E000466E1200000E4B6E000E4E6E630E4D6E35
:1058F00026EC2CF01200928092829284010EC26EED
:105900000C0EC16EAA0EC06E1200186E000E126E42
:10591000200E116E1850010B05EC33F0120093822B
:1059200081B295EF2CF098EF2CF0010E99EF2CF04E
:10593000000E1200938081B0A0EF2CF0A3EF2CF0AA
:10594000010EA4EF2CF0000E1200000E096E200EC6
:10595000086E54EC2EF00850010B4A6E4A501200AB
:10596000016E9EA8B6EF2CF0B8EF2CF0B1EF2CF042
:1059700001C0ADFF1200CE7F967FEA7FB27FC07F6D
:10598000887FDC7FA47F687F467F787F577F2C0EDF
:10599000AC6E900EAB6E080EB86E000EB06E220E9E
:1059A000AF6E948C948E12009350EF0B936E9350C5
:1059B000DF0B936E9350BF0B936E93507F0B936EE0
:1059C0000E0EC16E12000B6E0B5083EC30F00B38D4
:1059D000F00B83EC30F0010E016E000E026E000E33
:1059E000036E000E046E4AEC30F012000150030208
:1059F000F3CF05F0F4CF06F001500402F350062671
:105A000002500302F350062605C001F006C002F062
:105A1000120052EC2CF020EC2CF08FEC2CF0000952
:105A2000D8B415EF2DF017EF2DF00DEF2DF020EC81
:105A30002CF09AEC2CF020EC2CF0000E4C6E1200A6
:105A4000000E016EABA227EF2DF029EF2DF02DEF08
:105A50002DF0AB50EF0BAB6EAB889EAA32EF2DF062
:105A600034EF2DF036EF2DF0AECF01F001501200E3
:105A70009AEC2CF020EC2CF08FEC2CF00009D8B430
:105A800044EF2DF046EF2DF03CEF2DF09AEC2CF08A
:105A9000016E20EC2CF04BEC2CF020EC2CF00150A3
:105AA00012002DEC2CF072EC2CF069EC2CF036ECA2
:105AB0002CF059EC2CF040EC2CF001C007F002C0A7
:105AC00008F0A1EC2DF0EEEC34F061EC2CF05BEF83
:105AD0002DF000EF00F077EF2DF002C0F6FF03C0CD
:105AE000F7FF0800F550B0EC2CF0024A032A02C080
:105AF000F6FF03C0F7FF0800F5500009D8A483EFB4
:105B00002DF085EF2DF06DEF2DF01200760EF66E74
:105B1000590EF76E000EF86E00EE60F010EE18F001
:105B20000900F5CFEEFFE550E150FAE100EE37F065
:105B3000160EEE6AE806FDE1000EF86E000151EF68
:105B40002DF007C001F008C002F0000E046E050E33
:105B5000036EF6EC2CF001C009F002C00AF0091E39
:105B60000A1E0E0E095E000E0A5A0A50D76E09C0B0
:105B7000D6FFF250FB0BF26E12001CBECBEF2DF0E5
:105B80001C5007E1640E1B5CD8B0C9EF2DF0CBEFC1
:105B90002DF0D9EF2DF01CBED0EF2DF0D2EF2DF06F
:105BA000D9EF2DF0000E126E240E116E1B5005EC75
:105BB00033F012001CBEE8EF2DF01C5007E1640E1C
:105BC0001B5CD8B0E6EF2DF0E8EF2DF0F6EF2DF0EE
:105BD0001CBEEDEF2DF0EFEF2DF0F6EF2DF0000EE7
:105BE000126E220E116E1B5005EC33F012001CBE1B
:105BF00005EF2EF01C5007E1640E1B5CD8B003EFDC
:105C00002EF005EF2EF013EF2EF01CBE0AEF2EF053
:105C10000CEF2EF013EF2EF0000E126E230E116E0D
:105C20001B5005EC33F012001CBE22EF2EF01C506E
:105C300007E1640E1B5CD8B020EF2EF022EF2EF0AF
:105C400030EF2EF01CBE27EF2EF029EF2EF030EFB4
:105C50002EF0000E126E210E116E1B5005EC33F06B
:105C600012004C50D8B437EF2EF039EF2EF049EF38
:105C70002EF09AEC2CF020EC2CF08FEC2CF000099C
:105C8000D8B445EF2EF047EF2EF03DEF2EF020EC8C
:105C90002CF09AEC2CF052EC2CF020EC2CF04BEC8D
:105CA0002CF0010E4C6E1200000E026EDE0E036E22
:105CB000010E56EC2FF0000E026E08C003F0000E2D
:105CC00056EC2FF0000E026EDF0E036E010E56EC46
:105CD0002FF0010E026E010E77EC2EF00A6E0A50C4
:105CE0000B6E0C6A0BC008F00CC009F01200046EB9
:105CF000000E076E000E066E000E056E38EC2DF0DD
:105D0000036E075007240310076E054A062A065043
:105D100009E1080E055CD8A090EF2EF092EF2EF06E
:105D20007EEF2EF00450CCEC2EF00250D8B49BEF56
:105D30002EF09DEF2EF09FEF2EF009EC2DF0075086
:105D40001200000E116E000E106EB7EF2EF0105004
:105D50000C240E6E11500D200F6E0EC0F6FF0FC0FA
:105D6000F7FF0800F550E3EC2CF0104A112A105010
:105D70000C240E6E11500D200F6E0EC0F6FF0FC0DA
:105D8000F7FF0800F5500009D8A4C9EF2EF0CBEFBB
:105D90002EF0A7EF2EF01200016E0150D8B4D3EF11
:105DA0002EF0D5EF2EF0D9EF2EF09AEC2CF0DBEFA1
:105DB0002EF052EC2CF020EC2CF08FEC2CF00009A3
:105DC000D8B4E5EF2EF0E7EF2EF0DDEF2EF0015026
:105DD000D8B4EDEF2EF0EFEF2EF0F1EF2EF09AECBD
:105DE0002CF020EC2CF04BEC2CF020EC2CF01200E2
:105DF000000E106E000E0F6E000E116E000E126E71
:105E0000000E136E000E146E16EF2FF0140E016EBE
:105E1000000E026E000E036E000E046E4AEC30F0AF
:105E2000010E1126000E1222132214220B50115CB7
:105E30000C5012580D5013580E501458D8A023EF80
:105E40002FF025EF2FF006EF2FF01200156E1550F2
:105E5000BCEC30F01538F00BBCEC30F0020E15182D
:105E6000D8B435EF2FF037EF2FF03FEF2FF01504B8
:105E7000D8A43DEF2FF03FEF2FF04BEF2FF0020EA5
:105E80000B6E000E0C6E000E0D6E000E0E6EF8EC1A
:105E90002EF055EF2FF0010E016E000E026E000E77
:105EA000036E000E046E4AEC30F01200046E0450D3
:105EB000D8B45DEF2FF05FEF2FF061EF2FF031ECF2
:105EC0002EF0000E056E03BE68EF2FF06BEF2FF083
:105ED000010E6CEF2FF0000ECCEC2EF0D8900336B4
:105EE000052A070E056477EF2FF079EF2FF063EFA7
:105EF0002FF038EC2DF00250D8B481EF2FF083EF63
:105F00002FF085EF2FF009EC2DF01200000E096E36
:105F1000240E086E54EC2EF008501A6E630E1A64AC
:105F200094EF2FF096EF2FF09DEF2FF0000E126EF2
:105F3000240E116E630E05EC33F01A50D8A4A3EFB3
:105F40002FF0A5EF2FF0ACEF2FF0000E126E240E05
:105F5000116E000E05EC33F0000E096E240E086E73
:105F600054EC2EF008C018F009C019F01200000E11
:105F7000096E220E086E54EC2EF008501A6E630E55
:105F80001A64C5EF2FF0C7EF2FF0CEEF2FF0000E01
:105F9000126E220E116E630E05EC33F01A50D8A467
:105FA000D4EF2FF0D6EF2FF0DDEF2FF0000E126EB2
:105FB000220E116E000E05EC33F0000E096E220E5B
:105FC000086E54EC2EF008C018F009C019F0120049
:105FD000000E096E230E086E54EC2EF008501A6E57
:105FE000630E1A64F6EF2FF0F8EF2FF0FFEF2FF0AB
:105FF000000E126E230E116E630E05EC33F01A5074
:10600000D8A405EF30F007EF30F00EEF30F0000EBF
:10601000126E230E116E000E05EC33F0000E096EA9
:10602000230E086E54EC2EF008C018F009C019F0C9
:106030001200000E096E210E086E54EC2EF008506E
:106040001A6E630E1A6427EF30F029EF30F030EF4C
:1060500030F0000E126E210E116E630E05EC33F05F
:106060001A50D8A436EF30F038EF30F03FEF30F070
:10607000000E126E210E116E000E05EC33F0000EB4
:10608000096E210E086E54EC2EF008C018F009C0FD
:1060900019F01200000E0A6E000E096E000E056E59
:1060A000000E066E000E076E000E086E73EF30F0E5
:1060B000000E0A6E000E096E0A5009E1130E095C0B
:1060C000D8A065EF30F067EF30F069EF30F06DEF9A
:1060D00030F0094A0A2A5CEF30F0010E0526000E66
:1060E0000622072208220150055C02500658035080
:1060F000075804500858D8A080EF30F082EF30F0F5
:1061000058EF30F01200016E848201A88AEF30F05F
:106110008CEF30F08FEF30F0838692EF30F08350C9
:10612000F70B836E01AA97EF30F099EF30F09CEFF8
:1061300030F083849FEF30F08350FB0B836E01AC13
:10614000A4EF30F0A6EF30F0A9EF30F08382ACEF8F
:1061500030F08350FD0B836E01AEB1EF30F0B3EF42
:1061600030F0B6EF30F08380B9EF30F08350FE0BA3
:10617000836E31EC2CF01200016E8450FD0B846EA6
:1061800001A8C5EF30F0C7EF30F0CAEF30F08386DA
:10619000CDEF30F08350F70B836E01AAD2EF30F0D1
:1061A000D4EF30F0D7EF30F08384DAEF30F0835063
:1061B000FB0B836E01ACDFEF30F0E1EF30F0E4EF8A
:1061C00030F08382E7EF30F08350FD0B836E01AE39
:1061D000ECEF30F0EEEF30F0F1EF30F08380F4EFE1
:1061E00030F08350FE0B836E31EC2CF01200010472
:1061F0000210D8A4FEEF30F000EF31F002EF31F0E2
:10620000010EC26E020E01180210D8A40AEF31F07E
:106210000CEF31F00EEF31F0050EC26E030E0118D7
:106220000210D8A416EF31F018EF31F01AEF31F068
:10623000090EC26E060EC212C2B221EF31F023EF78
:1062400031F01CEF31F0C4CF03F0046A0350046E48
:10625000036AC3500326000E042203C001F004C0E9
:1062600002F01200176E030E176039EF31F03BEFAA
:1062700031F06BEF31F017C015F0010E166E152AD4
:1062800044EF31F0D8901636152E42EF31F016500B
:1062900082140009D8B44FEF31F051EF31F05EEFC6
:1062A00031F04B0E0B6E000E0C6E000E0D6E000EDC
:1062B0000E6EF8EC2EF0010E85EF31F04B0E0B6EEA
:1062C000000E0C6E000E0D6E000E0E6EF8EC2EF031
:1062D000000E85EF31F017C015F0010E1526010EE6
:1062E000166E152A76EF31F0D8901636152E74EF0B
:1062F00031F0165083140009D8B481EF31F083EFE8
:1063000031F05EEF31F051EF31F01200000E0E6E01
:106310000ABE8FEF31F08DEF31F095EF31F0096C5F
:106320000A1ED8B00A2A010E0E6E0CBE9CEF31F088
:106330009AEF31F0A0EF31F00B6C0C1ED8B00C2AA4
:106340000B500C10D8B4A7EF31F0A9EF31F0CDEF1E
:1063500031F0010E0D6EB1EF31F0D8900B360C36E6
:106360000D2A0CAEB6EF31F0B8EF31F0ADEF31F0F1
:106370000B50095C0C500A58D8A0C1EF31F0C3EFA4
:1063800031F0C7EF31F00B50095E0C500A5AD8902B
:106390000C320B320D2EB8EF31F00E50D8B4D3EFD3
:1063A00031F0D5EF31F0D9EF31F0096C0A1ED8B0D9
:1063B0000A2A09C009F00AC00AF012009650FD0B23
:1063C000966E9650FE0B966E9550FE0B956E955000
:1063D000FD0B956E9550FB0B956E9550F70B956EDA
:1063E0000E0EC16E0F0E0B6E000E0C6E000E0D6EBB
:1063F000000E0E6EF8EC2EF0300EBCEC30F0020EFB
:106400000B6E000E0C6E000E0D6E000E0E6EF8EC94
:106410002EF0300EBCEC30F0020E0B6E000E0C6E47
:10642000000E0D6E000E0E6EF8EC2EF0300EBCEC71
:1064300030F0020E0B6E000E0C6E000E0D6E000E94
:106440000E6EF8EC2EF0200EBCEC30F0020E0B6E4F
:10645000000E0C6E000E0D6E000E0E6EF8EC2EF09F
:10646000280E26EC2FF0010E26EC2FF0060E26EC5F
:106470002FF00F0E26EC2FF01200000E066E04BE59
:1064800046EF32F044EF32F04CEF32F0036C041E72
:10649000D8B0042A010E066E02BE53EF32F051EF5F
:1064A00032F059EF32F0016C021ED8B0022A010E10
:1064B000061A000E086E000E076E03500410D8B4C2
:1064C00064EF32F066EF32F08EEF32F0010E056EBF
:1064D0006EEF32F0D89003360436052A04AE73EF1F
:1064E00032F075EF32F06AEF32F0D89007360836A6
:1064F0000350015C04500258D8A081EF32F083EFC2
:1065000032F088EF32F00350015E0450025A0780E7
:10651000D89004320332052E75EF32F00650D8B40D
:1065200094EF32F096EF32F09AEF32F0076C081EDB
:10653000D8B0082A07C001F008C002F01200046EAB
:106540000104D8A4A6EF32F0A8EF32F0D5EF32F074
:10655000040E0418D8A4AFEF32F0B1EF32F0B6EF6A
:1065600032F08350BF0B836ED5EF32F00450D8A4C5
:10657000BCEF32F0BEEF32F0C3EF32F08150EF0BE0
:10658000816ED5EF32F004C002F0040E0226010E37
:10659000036E022ACEEF32F0D8900336022ECCEFF3
:1065A00032F00350FF0A8114816E0150D8A4DBEF52
:1065B00032F0DDEF32F004EF33F0040E0418D8A40B
:1065C000E4EF32F0E6EF32F0E9EF32F0838C04EFE3
:1065D00033F00450D8A4EFEF32F0F1EF32F0F4EFE3
:1065E00032F0818804EF33F004C002F0040E02267A
:1065F000010E036E022AFFEF32F0D8900336022E0E
:10660000FDEF32F0035081121200136E000E026E85
:10661000DE0E036E010E56EC2FF0000E026E11C05E
:1066200003F0000E56EC2FF0010E026E13C003F0C3
:10663000000E56EC2FF0000E146E000E156E000EBC
:10664000166E000E176E14C001F015C002F016C0D1
:1066500003F017C004F0000E056E000E066EC80EA3
:10666000076E420E086E6CEC34F0D8A03AEF33F0AF
:106670003CEF33F03EEF33F071EF33F014C001F034
:1066800015C002F016C003F017C004F0000E056E2E
:10669000000E066E800E076E3F0E086E0CEC39F091
:1066A00001C014F002C015F003C016F004C017F0CA
:1066B00014C001F015C002F016C003F017C004F0BA
:1066C000000E056E000E066EC80E076E420E086EB6
:1066D0006CEC34F0D8A06FEF33F071EF33F03EEF95
:1066E00033F012001CBE79EF33F077EF33F080EF18
:1066F00033F01B6C1C1ED8B01C2A2D0EE3EC2CF0C2
:10670000270E046E100E036E1BC001F01CC002F0B9
:106710003DEC32F001C009F002C00AF0000E0C6E30
:106720000A0E0B6E86EC31F00950300FE3EC2CF0C2
:10673000030E046EE80E036E1BC001F01CC002F0D5
:106740003DEC32F001C009F002C00AF0000E0C6E00
:106750000A0E0B6E86EC31F00950300FE3EC2CF092
:10676000000E046E640E036E1BC001F01CC002F02C
:106770003DEC32F001C009F002C00AF0000E0C6ED0
:106780000A0E0B6E86EC31F00950300FE3EC2CF062
:10679000000E046E0A0E036E1BC001F01CC002F056
:1067A0003DEC32F001C009F002C00AF0000E0C6EA0
:1067B0000A0E0B6E86EC31F00950300FE3EC2CF032
:1067C0001BC009F01CC00AF0000E0C6E0A0E0B6E06
:1067D00086EC31F00950300FE3EC2CF012001CBEB7
:1067E000F6EF33F0F4EF33F0FDEF33F01B6C1C1ECB
:1067F000D8B01C2A2D0EB0EC2CF0270E046E100E13
:10680000036E1BC001F01CC002F03DEC32F001C071
:1068100009F002C00AF0000E0C6E0A0E0B6E86EC38
:1068200031F00950300FB0EC2CF0030E046EE80E7E
:10683000036E1BC001F01CC002F03DEC32F001C041
:1068400009F002C00AF0000E0C6E0A0E0B6E86EC08
:1068500031F00950300FB0EC2CF0000E046E640ED5
:10686000036E1BC001F01CC002F03DEC32F001C011
:1068700009F002C00AF0000E0C6E0A0E0B6E86ECD8
:1068800031F00950300FB0EC2CF0000E046E0A0EFF
:10689000036E1BC001F01CC002F03DEC32F001C0E1
:1068A00009F002C00AF0000E0C6E0A0E0B6E86ECA8
:1068B00031F00950300FB0EC2CF01BC009F01CC0B7
:1068C0000AF0000E0C6E0A0E0B6E86EC31F00950C9
:1068D000300FB0EC2CF01200000E0114096E000E07
:1068E00002140A6E800E03140B6E7F0E04140C6EDD
:1068F00009500A100B100C10D8A481EF34F083EF6C
:1069000034F08BEF34F0000E016E000E026E000EBC
:10691000036E000E046E000E0514096E000E0614C0
:106920000A6E800E07140B6E7F0E08140C6E095051
:106930000A100B100C10D8A4A0EF34F0A2EF34F022
:10694000AAEF34F0000E056E000E066E000E076E04
:10695000000E086E04AEAFEF34F0B1EF34F0BAEFD2
:1069600034F0016C021ED8B0022A031ED8B0032AEC
:10697000800E045608AEBFEF34F0C1EF34F0CAEF1A
:1069800034F0056C061ED8B0062A071ED8B0072AB8
:10699000800E0856000E011A000E021A000E031A8D
:1069A000800E041A000E051A000E061A000E071AB1
:1069B000800E081A0550015C065002580750035813
:1069C00008500458D8B0E7EF34F0E9EF34F0ECEFBA
:1069D00034F0D890EDEF34F0D8801200F9EC36F0B6
:1069E0001D50366E86EC2FF018C031F019C032F011
:1069F000000E026E010E016EF7EC30F00150315CBA
:106A00003250800A336E0250800A3358D8B00BEFF0
:106A100035F00DEF35F014EF35F0010E016E000E7C
:106A20009FEC32F019EF35F0000E016E000E9FEC76
:106A300032F0E8EC2FF018C031F019C032F0000E3F
:106A4000026E030E016EF7EC30F00150315C3250F3
:106A5000800A336E0250800A3358D8B032EF35F0D6
:106A600034EF35F03BEF35F0010E016E020E9FEC76
:106A700032F040EF35F0000E016E020E9FEC32F066
:106A8000000E026E010E016EF7EC30F001C031F025
:106A900002C032F0B7EC2FF01850315C3250800A4F
:106AA000336E1950800A3358D8B059EF35F05BEF88
:106AB00035F062EF35F0010E016E010E9FEC32F001
:106AC00067EF35F0000E016E010E9FEC32F0000E04
:106AD000026E030E016EF7EC30F001C031F002C01F
:106AE00032F019EC30F01850315C3250800A336EBD
:106AF0001950800A3358D8B080EF35F082EF35F066
:106B000089EF35F0010E016E030E9FEC32F0C0EFFD
:106B100036F0000E016E030E9FEC32F0C0EF36F03F
:106B2000030E3618D8A497EF35F099EF35F0A3EFA0
:106B300035F086EC2FF0010E18241B6E000E192084
:106B40001C6EBDEC2DF0020E3618D8A4AAEF35F05D
:106B5000ACEF35F0B6EF35F086EC2FF0FF0E1824D1
:106B60001B6EFF0E19201C6EBDEC2DF0040E3618A6
:106B7000D8A4BDEF35F0BFEF35F0E6EF36F0020EEA
:106B800029EC2CF0E6EF36F0030E3618D8A4CBEF44
:106B900035F0CDEF35F0D7EF35F0E8EC2FF0010E02
:106BA00018241B6E000E19201C6EF7EC2DF0020E3F
:106BB0003618D8A4DEEF35F0E0EF35F0EAEF35F027
:106BC000E8EC2FF0FF0E18241B6EFF0E19201C6E30
:106BD000F7EC2DF0040E3618D8A4F1EF35F0F3EFF2
:106BE00035F0E6EF36F0030E29EC2CF0E6EF36F048
:106BF000030E3618D8A4FFEF35F001EF36F00BEF97
:106C000036F0B7EC2FF0010E18241B6E000E192081
:106C10001C6EDAEC2DF0020E3618D8A412EF36F006
:106C200014EF36F01EEF36F0B7EC2FF0FF0E1824FD
:106C30001B6EFF0E19201C6EDAEC2DF0040E3618B8
:106C4000D8A425EF36F027EF36F0E6EF36F0010E48
:106C500029EC2CF0E6EF36F0030E3618D8A433EF0B
:106C600036F035EF36F03FEF36F019EC30F0010E2C
:106C700018241B6E000E19201C6E14EC2EF0020E50
:106C80003618D8A446EF36F048EF36F052EF36F01B
:106C900019EC30F0FF0E18241B6EFF0E19201C6E2D
:106CA00014EC2EF0040E3618D8A459EF36F05BEF32
:106CB00036F0E6EF36F0040E29EC2CF0E6EF36F075
:106CC000030E3618D8A467EF36F069EF36F073EF8D
:106CD00036F040EC2CF0010E0124036E000E022071
:106CE000046E3BEC2CF0020E3618D8A47AEF36F086
:106CF0007CEF36F086EF36F040EC2CF0FF0E0124EE
:106D0000036EFF0E0220046E3BEC2CF0040E3618CE
:106D1000D8A48DEF36F08FEF36F0E6EF36F0050EA3
:106D200029EC2CF0E6EF36F0030E3618D8A49BEFD2
:106D300036F09DEF36F0A3EF36F0A5EC2CF0316E77
:106D4000312885EC2CF0020E3618D8A4AAEF36F0C4
:106D5000ACEF36F0B2EF36F0A5EC2CF0316E31042A
:106D600085EC2CF0040E3618D8A4B9EF36F0BBEF42
:106D700036F0E6EF36F0000E29EC2CF0E6EF36F0B8
:106D800021EC2CF0316E326A3250000AD8B4CBEFCD
:106D900036F0E6EF36F03150000AD8B490EF35F017
:106DA000010AD8B4C4EF35F0030AD8B4F8EF35F0CF
:106DB000010AD8B42CEF36F0070AD8B460EF36F0E9
:106DC000010AD8B494EF36F0E6EF36F0A5EC2CF0DB
:106DD000316E3150346E356A21EC2CF0316E315009
:106DE0001D6E1E6A34C01FF035C020F06CEC3BF005
:106DF0001200000E226E050E216E46044710D8B414
:106E000004EF37F006EF37F03FEF37F0000E32ECCB
:106E100031F00009D8B40FEF37F011EF37F019EF68
:106E200037F0000E226E030E216E000E476E010E2B
:106E3000466E010E32EC31F00009D8B422EF37F083
:106E400024EF37F02CEF37F0000E226E020E216E89
:106E5000000E476E010E466E020E32EC31F0000954
:106E6000D8B435EF37F037EF37F03FEF37F0000E9B
:106E7000226E040E216E000E476E010E466E000E4D
:106E8000476E000E466E20EC2DF0256E500E251834
:106E9000D8A44DEF37F04FEF37F051EF37F0000E39
:106EA000486E2550D8B457EF37F059EF37F06CEFF4
:106EB00037F0370E4824D96EDA6A000EDA2225C080
:106EC000DFFF482A0E0E486468EF37F06AEF37F0AC
:106ED0006CEF37F0000E486E090E4818D8A473EF17
:106EE00037F075EF37F0E0EF38F0000E486E3E50A7
:106EF0000A0DF3CF1FF0F4CF20F03F501F26000EF5
:106F00002022F00E1F24236EFD0E2020246E500E32
:106F10003718D8A48EEF37F090EF37F0CCEF37F07A
:106F2000530E3818D8A497EF37F099EF37F0CCEF1D
:106F300037F04D0E3918D8A4A0EF37F0A2EF37F094
:106F4000CCEF37F0410E3A18D8A4A9EF37F0ABEFE9
:106F500037F0CCEF37F0580E3B18D8A4B2EF37F02B
:106F6000B4EF37F0CCEF37F0310E3C18D8A4BBEFBC
:106F700037F0BDEF37F0CCEF37F0580E3D18D8A4FE
:106F8000C4EF37F0C6EF37F0CCEF37F023C01BF07B
:106F900024C01CF0BDEC2DF0500E3718D8A4D3EF50
:106FA00037F0D5EF37F011EF38F0530E3818D8A47A
:106FB000DCEF37F0DEEF37F011EF38F04D0E391817
:106FC000D8A4E5EF37F0E7EF37F011EF38F0410ED6
:106FD0003A18D8A4EEEF37F0F0EF37F011EF38F0B1
:106FE000580E3B18D8A4F7EF37F0F9EF37F011EF50
:106FF00038F0320E3C18D8A400EF38F002EF38F029
:1070000011EF38F0580E3D18D8A409EF38F00BEF07
:1070100038F011EF38F023C01BF024C01CF0F7EC5F
:107020002DF0500E3718D8A418EF38F01AEF38F0BA
:1070300056EF38F0530E3818D8A421EF38F023EF6C
:1070400038F056EF38F04D0E3918D8A42AEF38F042
:107050002CEF38F056EF38F0490E3A18D8A433EF39
:1070600038F035EF38F056EF38F04E0E3B18D8A414
:107070003CEF38F03EEF38F056EF38F0310E3C1868
:10708000D8A445EF38F047EF38F056EF38F0580EF7
:107090003D18D8A44EEF38F050EF38F056EF38F0E6
:1070A00023C01BF024C01CF0DAEC2DF0500E371872
:1070B000D8A45DEF38F05FEF38F09BEF38F0530E57
:1070C0003818D8A466EF38F068EF38F09BEF38F046
:1070D0004D0E3918D8A46FEF38F071EF38F09BEFF0
:1070E00038F0490E3A18D8A478EF38F07AEF38F033
:1070F0009BEF38F04E0E3B18D8A481EF38F083EFA9
:1071000038F09BEF38F0320E3C18D8A48AEF38F0F4
:107110008CEF38F09BEF38F0580E3D18D8A493EF61
:1071200038F095EF38F09BEF38F023C01BF024C007
:107130001CF014EC2EF0500E3718D8A4A2EF38F043
:10714000A4EF38F0E0EF38F0530E3818D8A4ABEFC6
:1071500038F0ADEF38F0E0EF38F0540E3918D8A41D
:10716000B4EF38F0B6EF38F0E0EF38F0490E3A18E7
:10717000D8A4BDEF38F0BFEF38F0E0EF38F04D0E97
:107180003B18D8A4C6EF38F0C8EF38F0E0EF38F07D
:10719000450E3C18D8A4CFEF38F0D1EF38F0E0EF2F
:1071A00038F0580E3D18D8A4D8EF38F0DAEF38F0A0
:1071B000E0EF38F023C003F024C004F03BEC2CF0E7
:1071C000640E2518D8A4E7EF38F0E9EF38F0EDEFBA
:1071D00038F0000E226E030E216E610E2518D8A421
:1071E000F4EF38F0F6EF38F0FAEF38F0000E226ED8
:1071F000020E216E650E2518D8A401EF39F003EFB9
:1072000039F007EF39F0000E226E040E216E21C016
:107210001DF022C01EF012000450800B0D6E0450B1
:1072200004240F6E03AE17EF39F019EF39F01AEF9F
:1072300039F00F800F50D8B420EF39F022EF39F039
:1072400037EF39F00F28D8A428EF39F02AEF39F0BA
:1072500032EF39F0000E016E000E026E000E036E6A
:10726000000E046E038E000E046E3FEF39F0000E28
:10727000016E000E026E000E036E000E046E0850CA
:10728000800B0E6E0D500E18D8B449EF39F04BEF4D
:1072900039F04CEF39F00D8C085008240E6E07AE13
:1072A00054EF39F056EF39F057EF39F00E800E50A9
:1072B000D8B45DEF39F05FEF39F074EF39F00E2894
:1072C000D8A465EF39F067EF39F06FEF39F0000EB1
:1072D000056E000E066E000E076E000E086E078E1D
:1072E000000E086E7CEF39F0000E056E000E066E83
:1072F000000E076E000E086E0F500E5CD8B083EFC4
:1073000039F085EF39F0ACEF39F00DAC8AEF39F098
:107310008CEF39F08EEF39F0800E0D1A0FC010F09F
:107320000EC00FF010C00EF001C010F005C001F04B
:1073300010C005F002C010F006C002F010C006F048
:1073400003C010F007C003F010C007F004C010F035
:1073500008C004F010C008F0000E106E0F500EC0F0
:1073600009F00A6A095E000E0A5A0ABEC1EF39F036
:107370000A5009E11A0E095CD8A0C1EF39F0C3EF39
:1073800039F0FAEF39F00150021003100410D8A4BC
:10739000CCEF39F0CFEF39F0010ED0EF39F0000E1D
:1073A000106E000E016E000E026E000E036E000ED7
:1073B000046E0EC00FF003EF3AF010A0E2EF39F0C8
:1073C000E4EF39F0EAEF39F0D89010300109106E8F
:1073D000ECEF39F0D890103201A0F1EF39F0F3EF73
:1073E00039F0F4EF39F0108E0434043203320232F3
:1073F00001320F2A0E500F5CD8A001EF3AF003EFD4
:107400003AF0DDEF39F00DBC08EF3AF00AEF3AF050
:107410004AEF3AF00F50D8A410EF3AF012EF3AF0DA
:107420001CEF3AF0000E016E000E026E000E036EAD
:10743000000E046E6BEF3BF0055001260650022251
:10744000075003220850042204A029EF3AF02BEF42
:107450003AF0D7EF3AF010A030EF3AF032EF3AF0CE
:1074600038EF3AF0D89010300109106E3AEF3AF048
:10747000D890103201A03FEF3AF041EF3AF042EFDE
:107480003AF0108E043404320332023201320F2AF1
:10749000D7EF3AF00550015C0650025807500358E8
:1074A0000450800A096E0850800A0958D8B05BEF72
:1074B0003AF05DEF3AF088EF3AF00150055C096E62
:1074C000025006580A6E035007580B6E04500858B5
:1074D0000C6EFF0E0924016EFF0E0A20026EFF0ED5
:1074E0000B20036EFF0E0C20046E800E0D1A106C24
:1074F0001050D8A47EEF3AF080EF3AF090EF3AF0D7
:10750000010E0126000E02220322042290EF3AF01F
:107510000550015E0650025A0750035A0850045A9B
:107520000150021003100410D8A499EF3AF09BEF19
:107530003AF0D0EF3AF01050D8A4A1EF3AF0A3EF10
:107540003AF0D0EF3AF0000E016E000E026E000E1F
:10755000036E000E046E6BEF3BF0D89001360236DE
:107560000336043610AEB7EF3AF0B9EF3AF0BAEF9F
:107570003AF0018010A0BFEF3AF0C1EF3AF0C5EF4A
:107580003AF0D8801036C7EF3AF0D89010360F5046
:10759000D8B4CDEF3AF0CFEF3AF0D0EF3AF00F0693
:1075A00003AED5EF3AF0D7EF3AF0ADEF3AF0000E78
:1075B0000E6E10AEDEEF3AF0E0EF3AF0F8EF3AF090
:1075C00010C009F07F0E0916D8B4E9EF3AF0EBEFDE
:1075D0003AF0EFEF3AF0010E0E6EF8EF3AF001A03C
:1075E000F4EF3AF0F6EF3AF0F8EF3AF0EBEF3AF06A
:1075F0000E50D8B4FEEF3AF000EF3BF02BEF3BF02B
:10760000010E0126000E02220322042204A00BEF29
:107610003BF00DEF3BF02BEF3BF001C009F002C057
:107620000AF003C00BF004C00CF00C340C320B3227
:107630000A32093209C001F00AC002F00BC003F09F
:107640000CC004F00F28D8B428EF3BF02AEF3BF031
:107650002BEF3BF00F2A0F28D8B431EF3BF033EF7C
:107660003BF03BEF3BF00F50D8A439EF3BF03BEF42
:107670003BF04DEF3BF0000E016E000E026E000E6F
:10768000036E000E046E0F50D8A449EF3BF04BEF91
:107690003BF04DEF3BF0000E0D6E0FA052EF3BF0B4
:1076A00054EF3BF057EF3BF0038E58EF3BF0039E57
:1076B000D8900F30046E0DAE60EF3BF062EF3BF000
:1076C00063EF3BF0048E01C001F002C002F003C082
:1076D00003F004C004F01200040E1D181E10D8A4FC
:1076E00074EF3BF076EF3BF0F9EF3BF0010E26EC48
:1076F0002FF0800E26EC2FF01DC021F01EC022F0CE
:10770000D89021362236D89021362236600E212498
:10771000236E000E2220246ED8901F34D96E2034A0
:10772000DA6E2350D9262450DA22DECF0CF0DDCFDA
:107730000DF0A1EC2EF0C00E26EC2FF040EC2CF05A
:1077400001C01BF002C01CF072EC33F00F0E0C6E87
:107750007F0E0D6EA1EC2EF0000E266E000E256E33
:10776000080EB0EC2CF0254A262A26BEC1EF3BF0CD
:10777000265009E1200E255CD8A0C1EF3BF0C3EFF5
:107780003BF0B0EF3BF0F90E026E7E0E036E6BEC39
:107790002DF01DC021F01EC022F0D89021362236D7
:1077A000D89021362236600E2124236E000E22202E
:1077B000246ED8901F34D96E2034DA6E2350D92627
:1077C0002450DA22DECF02F0DDCF03F06BEC2DF097
:1077D000200E026E7F0E036E6BEC2DF040EC2CF051
:1077E00001C01BF002C01CF0EFEC33F00D0EB0EC4A
:1077F0002CF01D501E10D8A400EF3CF002EF3CF01E
:10780000A9EF3CF0010E26EC2FF0800E26EC2FF0B5
:107810001DC021F01EC022F0D89021362236D8900B
:1078200021362236600E2124236E000E2220246E83
:10783000D8901F34D96E2034DA6E2350D9262450C4
:10784000DA22DECF0CF0DDCF0DF0A1EC2EF0C00E71
:1078500026EC2FF086EC2FF018C01BF019C01CF09E
:1078600072EC33F0F80E0C6E7F0E0D6EA1EC2EF064
:10787000000E026E010E016EF7EC30F001C01BF03D
:1078800002C01CF072EC33F00F0E0C6E7F0E0D6E0A
:10789000A1EC2EF0000E286E000E276E080EB0EC44
:1078A0002CF0274A282A28BE5FEF3CF0285009E137
:1078B000200E275CD8A05FEF3CF061EF3CF04EEF6C
:1078C0003CF0B70E026E7E0E036E6BEC2DF01DC009
:1078D00021F01EC022F0D89021362236D8902136D1
:1078E0002236600E2124236E000E2220246ED890B2
:1078F0001F34D96E2034DA6E2350D9262450DA2270
:10790000DECF02F0DDCF03F06BEC2DF0200E026E27
:107910007F0E036E6BEC2DF086EC2FF018C01BF081
:1079200019C01CF0EFEC33F0F80E026E7F0E036E00
:107930006BEC2DF0000E026E010E016EF7EC30F0D4
:1079400001C01BF002C01CF0EFEC33F00D0EB0ECE8
:107950002CF01D041E10D8A4B0EF3CF0B2EF3CF0A8
:1079600056EF3DF0800E26EC2FF01DC021F01EC01A
:1079700022F0D89021362236D89021362236600E59
:107980002124236E000E2220246ED8901F34D96E3D
:107990002034DA6E2350D9262450DA22DECF0CF0C0
:1079A000DDCF0DF0A1EC2EF0C00E26EC2FF0E8ECB0
:1079B0002FF018C01BF019C01CF072EC33F0F80E59
:1079C0000C6E7F0E0D6EA1EC2EF0000E026E030EFB
:1079D000016EF7EC30F001C01BF002C01CF072EC3D
:1079E00033F00F0E0C6E7F0E0D6EA1EC2EF0000E1C
:1079F0002A6E000E296E080EB0EC2CF0294A2A2AB5
:107A00002ABE0CEF3DF02A5009E1200E295CD8A0D7
:107A10000CEF3DF00EEF3DF0FBEF3CF0E30E026E9D
:107A20007E0E036E6BEC2DF01DC021F01EC022F007
:107A3000D89021362236D89021362236600E212465
:107A4000236E000E2220246ED8901F34D96E20346D
:107A5000DA6E2350D9262450DA22DECF02F0DDCFB1
:107A600003F06BEC2DF0200E026E7F0E036E6BECBC
:107A70002DF0E8EC2FF018C01BF019C01CF0EFEC53
:107A800033F0F80E026E7F0E036E6BEC2DF0000EDD
:107A9000026E030E016EF7EC30F001C01BF002C065
:107AA0001CF0EFEC33F00D0EB0EC2CF0020E1D18B4
:107AB0001E10D8A45EEF3DF060EF3DF004EF3EF005
:107AC000800E26EC2FF01DC021F01EC022F0D890B1
:107AD00021362236D89021362236600E2124236E9C
:107AE000000E2220246ED8901F34D96E2034DA6E16
:107AF0002350D9262450DA22DECF0CF0DDCF0DF052
:107B0000A1EC2EF0C00E26EC2FF0B7EC2FF018C031
:107B10001BF019C01CF072EC33F0F80E0C6E7F0EE7
:107B20000D6EA1EC2EF0000E026E010E016EF7EC50
:107B300030F001C01BF002C01CF072EC33F00F0EED
:107B40000C6E7F0E0D6EA1EC2EF0000E2C6E000E52
:107B50002B6E080EB0EC2CF02B4A2C2A2CBEBAEF60
:107B60003DF02C5009E1200E2B5CD8A0BAEF3DF07F
:107B7000BCEF3DF0A9EF3DF0A10E026E7E0E036E4C
:107B80006BEC2DF01DC021F01EC022F0D8902136E4
:107B90002236D89021362236600E2124236E000E24
:107BA0002220246ED8901F34D96E2034DA6E2350F0
:107BB000D9262450DA22DECF02F0DDCF03F06BECC1
:107BC0002DF0200E026E7F0E036E6BEC2DF0B7ECE5
:107BD0002FF018C01BF019C01CF0EFEC33F0F80EBA
:107BE000026E7F0E036E6BEC2DF0000E026E010E26
:107BF000016EF7EC30F001C01BF002C01CF0EFEC9E
:107C000033F00D0EB0EC2CF0030E1D181E10D8A48E
:107C10000CEF3EF00EEF3EF0B2EF3EF0800E26ECA1
:107C20002FF01DC021F01EC022F0D8902136223640
:107C3000D89021362236600E2124236E000E222099
:107C4000246ED8901F34D96E2034DA6E2350D92692
:107C50002450DA22DECF0CF0DDCF0DF0A1EC2EF0B7
:107C6000C00E26EC2FF019EC30F018C01BF019C034
:107C70001CF072EC33F0F80E0C6E7F0E0D6EA1EC62
:107C80002EF0000E026E030E016EF7EC30F001C014
:107C90001BF002C01CF072EC33F00F0E0C6E7F0E66
:107CA0000D6EA1EC2EF0000E2E6E000E2D6E080E45
:107CB000B0EC2CF02D4A2E2A2EBE68EF3EF02E504E
:107CC00009E1200E2D5CD8A068EF3EF06AEF3EF08F
:107CD00057EF3EF0CD0E026E7E0E036E6BEC2DF074
:107CE0001DC021F01EC022F0D89021362236D89037
:107CF00021362236600E2124236E000E2220246EAF
:107D0000D8901F34D96E2034DA6E2350D9262450EF
:107D1000DA22DECF02F0DDCF03F06BEC2DF0200E87
:107D2000026E7F0E036E6BEC2DF019EC30F018C074
:107D30001BF019C01CF0EFEC33F0F80E026E7F0E52
:107D4000036E6BEC2DF0000E026E030E016EF7EC6D
:107D500030F001C01BF002C01CF0EFEC33F00D0E50
:107D6000B0EC2CF0050E1D181E10D8A4BAEF3EF092
:107D7000BCEF3EF04FEF3FF0010E26EC2FF0800EEF
:107D800026EC2FF01DC021F01EC022F0D890213625
:107D90002236D89021362236600E2124236E000E22
:107DA0002220246ED8901F34D96E2034DA6E2350EE
:107DB000D9262450DA22DECF0CF0DDCF0DF0A1EC75
:107DC0002EF0000E306E000E2F6E080EB0EC2CF070
:107DD0002F4A302A30BEF6EF3EF0305009E1200E37
:107DE0002F5CD8A0F6EF3EF0F8EF3EF0E5EF3EF066
:107DF000200E026E7F0E036E6BEC2DF01DC021F085
:107E00001EC022F0D89021362236D8902136223654
:107E1000600E2124236E000E2220246ED8901F3481
:107E2000D96E2034DA6E2350D9262450DA22DECFE0
:107E300002F0DDCF03F06BEC2DF0C00E26EC2FF03E
:107E4000A5EC2CF00009D8A428EF3FF02AEF3FF072
:107E500036EF3FF0350E0C6E7F0E0D6EA1EC2EF05E
:107E6000350E026E7F0E036E6BEC2DF0A5EC2CF040
:107E7000E806D8A43EEF3FF040EF3FF04CEF3FF074
:107E8000240E0C6E7F0E0D6EA1EC2EF0240E0C6EE7
:107E90007F0E0D6EA1EC2EF00D0EB0EC2CF012004A
:107EA0000050726F746F636F6C6F3A2050534D497E
:107EB0004E315830300D0050726F746F636F6C6FBD
:107EC0003A2050534D4158315830300D0050726FA8
:107ED000746F636F6C6F3A2050534D494E32583077
:107EE000300D0050726F746F636F6C6F3A20505397
:107EF0004D4158325830300D0050726F746F636FBF
:107F00006C6F3A20505354494D455830300D002085
:107F10002020202020202020202020202020202061
:107F200020202000456E676C697368202020202087
:107F30002020202000506F727475677565732020B3
:107F40002020202020004368616E67652074696DE1
:107F5000652020202020004368616E6765206C61E9
:107F60006E67756167652000416C7465726172208F
:107F700074656D706F202000416C746572617220B1
:107F80006964696F6D6120004D696E20616C61727A
:107F90006D20312020004D617820616C61726D2070
:107FA000312020004D696E20616C61726D2032209D
:107FB00020004D617820616C61726D2032202000BC
:107FC0004D696E20616C61726D65203120004D61DC
:107FD0007820616C61726D65203120004D696E20E2
:107FE000616C61726D65203220004D617820616C9A
:0F7FF00061726D6520322000206164633D0000E6
:020000040020DA
:08000000FFFFFFFFFFFFFFFF00
:020000040030CA
:0E000000000C1F1EFF82A1FF0FC00FE00F407B
:00000001FF
